:020000008A294B
:10000600831603139818092800000328460883124C
:040016009900080045
:10001A0083160313C501430884000008C40044087A
:10002A00003A031923284408C60003208316C50A88
:0E003A004508430784000008C400142808008D
:10004800831203131A08F100981C2C28181218168A
:060058007108F000080031
:10005E00A03083160313C3000D200630FB001330AF
:10006E00FC00AD30FD00FD0B3A28FC0B3A28FB0BD3
:10007E003A280000000042088400000803194F28A7
:10008E00420884000008C60003208316C20A4228D4
:08009E001A30C600032008001F
:0E00A600831603133D088A003C088200080000
:1000B40083120313F8010830FC00700DF80D740866
:1000C400F80203186728F8070310F00DFC0B5F28EB
:0200D400080022
:1000D6008316031398169030831298008316871799
:1000E600071383128C1E7A281A08F0007428080059
:0E00F6000030831203138C1A0130F000080052
:10010400643083120313F4006D08F0005A20700861
:10011400EE006430F4006D08F0005A207808F00016
:100124000A30F4005A2070088316BB000A30F40029
:1001340083126D08F0005A207808F0007008EF0070
:020144000800B1
:100146003030831603133F078312B3003030831613
:1001560040078312B4003030831641078312B5007E
:100166002030B6000430DB0083163E088400000809
:100176000319CE2883125B08333EF10083163E082E
:1001860084000008F0007108840070088000BE0A30
:100196008312DB0AB72883125B08333E84002030C3
:1001A600800002305B07F0007008DB007008333E09
:0601B60084008001080036
:1001BC00333083160313990018156B203330FB0072
:1001CC00BB30FC00DF30FD00FD0BEA28FC0BEA28FD
:1001DC00FB0BEA28000000002C308316C3000D2016
:1001EC000B30FB002630FC005D30FD00FD0BFC28C5
:1001FC00FC0BFC28FB0BFC28000000002030C3008B
:10020C000D200B30FB002630FC005D30FD00FD0B9B
:10021C000D29FC0B0D29FB0B0D29000000004530AE
:10022C00C3000D200B30FB002630FC005D30FD00C0
:10023C00FD0B1E29FC0B1E29FB0B1E2900000000C8
:02024C000800A8
:10024E007B207008013A031D742924205C29EC0AD6
:10025E006C08033A031D332974296C08033A031DF5
:10026E003B290130D900EC0174295908013A031DCC
:10027E004329D9010130DA0074295A08013A031DC5
:10028E004B29DA010230EB0074295A08013A031D9A
:10029E005329DA010330EB0074295A08013A031D81
:1002AE005B29DA010130EB00742970083A3A031920
:1002BE002E2970080D3A0319342970082A3A0319A9
:1002CE003C297008323A031944297008333A03194D
:1002DE004C297008313A031954296B08033A031D4F
:0E02EE007D2983163E08C2002F20EB01080078
:1002FC0053208A110A128000840ABC0A0319BD0A11
:08030C00F003031D7E29080027
:10031400162283120313EB01DE2082205C30831645
:10032400BE0083126E088316BF003B08C000831210
:100334006F088316C100A32033308316BE00272123
:040344008F29A32931
:10042C00203084004D3083120313F000A930831662
:10043C00BC000130BD007E21A03084001B300313B2
:10044C00F000F6308316BC000130BD007E216D300B
:10045C00840003300313F00011308316BC0002300B
:10046C00BD007E21BB30840001300313F00014303A
:0C047C008316BC000230BD007E21080089
:10035200413454342B3443344D34473446343D34E1
:0803620031340D340A3400347B
:0E036A0041345434453430340D340A340034F8
:1003780030340034003400340034003400340034A5
:1003880000340034003400340034003400340034C5
:0403980000340034F9
:10039C00413454342B3443344E344D3449343D348D
:1003AC0032342C3432342C3430342C3430342C342D
:0803BC0030340D340A34003422
:0203C400003403
:0203C600003401
:0203C8000034FF
:1003CA0050346534723473346F346E347334203479
:0E03DA0069346E34733469346434653400342D
:0203E8000034DF
:0203EA000034DD
:1003EC00413454342B3443344D34473453343D343A
:1003FC0022342B34323433343434383431343034D2
:10040C0038343834393433343434303433342234AB
:06041C000D340A34003427
:0204220096340E
:020424000234A0
:0204260004349C
:0204280003349B
:02400E004A2F37
:00000001FF
