:02000000A8282E
:10000600831603139818092800000328831265082D
:040016009900080045
:10001A0083120313E401620884000008E300630802
:10002A00003A031922286308E5000320E40A640859
:0C003A00620784000008E300142808009E
:0E004600831203135D088A005C088200080024
:10005400831603139816903083129800831687171B
:10006400071383128C1E39281A08F000332808005D
:10007400831203135F08A5006008A6006108A700A7
:100084002030A8000430B7000030B8005E088400B7
:10009400000803195D283708253EF1005E08840036
:1000A4000008F0007108840070088000DE0AB70AB6
:1000B4000319B80A48283708253E84008001B70A86
:0600C4000319B80A080050
:0E00CA00333083160313990018152A200800FE
:1000D800A03083120313E2000D200630FB0013301A
:1000E800FC00AD30FD00FD0B7728FC0B7728FB0BDF
:1000F8007728000000005E088400000803198B2898
:100108005E0884000008E5000320DE0A7F2802302C
:10011800FB000430FC00BA30FD00FD0B9128FC0BFD
:100128009128FB0B912800001A30E50003200800F5
:1001380023208A110A128000840ADC0A0319DD0AC6
:08014800F003031D9C280800D0
:100150007421303083120313C5003330FB00BB30F1
:10016000FC00DF30FD00FD0BB328FC0BB328FB0BBC
:10017000B328000000003330FB00BB30FC00DF3050
:10018000FD00FD0BC128FC0BC128FB0BC1280000A2
:10019000000065204630DE003230DF003330E00002
:1001A0003430E1003A201530FB004B30FC00BE300B
:1001B000FD00FD0BD928FC0BD928FB0BD92800002A
:1001C0005530E2000D200B30FB002630FC005D3086
:1001D000FD00FD0BE928FC0BE928FB0BE9280000DA
:1001E00000002030E2000D200B30FB002630FC0028
:1001F0005D30FD00FD0BFA28FC0BFA28FB0BFA28FA
:10020000000000003930E2000D200B30FB002630EA
:10021000FC005D30FD00FD0B0B29FC0B0B29FB0BDB
:100220000B29000000002530DE006C20162917295C
:1002E800203084003C3083120313F0001D30DC0002
:1002F8000130DD009C20A03084001B30F000593014
:0A030800DC000130DD009C2008003D
:0A023A00413454340D340A3400340A
:1002440030340034003400340034003400340034DA
:1002540000340034003400340034003400340034FA
:04026400003400342E
:04026800003400342A
:10026C00413454342B3443344D34473446343D34C8
:08027C0031340D340A34003462
:02028400303414
:1002860050346534723473346F346E3473342034BE
:0E02960069346E347334693464346534003472
:0E02A40041345434453430340D340A340034BF
:1002B200413454342B3443344D34473453343D3475
:1002C20022342B343234333434343834313430340D
:1002D20038343834393433343434303433342234E7
:0602E2000D340A34003463
:02400E004A2F37
:00000001FF
