:02000000182ABC
:10000600831603139818092800000328570883123B
:040016009900080045
:0E001A00831603134D088A004C08820008006C
:10002800153083120313FD00FD0B18280000000093
:020038000800BE
:10003A0083160313D601540884000008D500550816
:10004A00003A031933285508D70003208316D60A25
:0E005A005608540784000008D500242808002A
:10006800253083160313D4001D200830FB009D3073
:10007800FC000530FD00FD0B3F28FC0B3F28FB0B67
:100088003F28000000005208CC005308CD000D2086
:100098008A110A12F0007008031960285208CC006F
:1000A8005308CD000D208A110A12D70003208316A9
:1000B800D20A0319D30A47281A30D70003200800A8
:0E00C8000030831203138C1A0130F000080080
:1000D6008316031398169030831298008316871799
:1000E600071383128C1E7A281A08F0007428080059
:1000F60083120313071E81280130A000071E8428DF
:100106008128871D88280130A100871D8B28882813
:020116000800DF
:10011800831203131A08F100981C94281812181651
:060128007108F000080060
:10012E00831203139F01C0309F0483161F179F175E
:10013E005208F000F00D7010F00D7010F00D7010F0
:10014E00700883129F041F1414201F151F1DB12841
:10015E000000AD281F101E08F100F00183161E08C6
:08016E00F0040030F104080068
:100176007B202008013A031DE1282108003A031DCF
:10018600E1288316CA01CB0180304B06F00080308F
:10019600013A7002031DD128F4304A020318E128FF
:1001A6007B202108013A031DDC28A20AA101A00137
:1001B600E1288316CA0A0319CB0AC7288312210825
:1001C600013A031D0B292008003A031D0B2983164B
:1001D600CA01CB0180304B06F0008030013A700234
:1001E600031DF728F4304A0203180B297B20200848
:1001F600013A031D06292208003C03180329A2031D
:10020600A101A0010B298316CA0A0319CB0AED28FE
:020216000800DE
:1002180083160313D201972070088312ED0071082A
:10022800EE0080307106F2008030013A7202031D40
:100238001F290E307002031C222934298030013A0C
:10024800F00080306E067002031D2C296D08903C6A
:1002580003183429A5308316D2000230D300342085
:0202680008008C
:10026A0064207008013A031D82298C206A29EF0A4A
:10027A006F08033A031D412982296F08033A031DB7
:10028A0049290130EC00EF0182296C08013A031D6B
:10029A005129EC010130A40082292408013A031DE6
:1002AA005929A4010230A30082292408013A031D16
:1002BA006129A4010330A30082292408013A031DFD
:1002CA006929A4010130A300822970083A3A031966
:1002DA003C2970080D3A0319422970082A3A031971
:1002EA004A297008323A031952297008333A031915
:1002FA005A297008313A031962292308033A031D5F
:06030A008729A301080091
:100310000D208A110A128000840ACC0A0319CD0A22
:08032000F003031D8829080009
:100328004D3083160313990018156B204D30FB00D0
:100338001930FC004F30FD00FD0BA029FC0BA02953
:10034800FB0BA02900000000A0308316D4001D205C
:100358001030FB003930FC000D30FD00FD0BB229D8
:10036800FC0BB229FB0BB229000000005F30D4005F
:100378001D201030FB003930FC000D30FD00FD0B56
:10038800C329FC0BC329FB0BC32900000000A730BD
:10039800D4001D201030FB003930FC000D30FD006A
:1003A800FD0BD429FC0BD429FB0BD4290000000039
:0203B80008003B
:1003BA003030831603134F078312C200303083167E
:1003CA0050078312C3003030831651078312C400CA
:1003DA002030C5000430D40083164E08840000087B
:1003EA000319082A83125408423EF10083164E0864
:1003FA0084000008F0007108840070088000CE0AAA
:10040A008312D40AF12983125408423E8400203010
:10041A00800002305407F0007008D4007008423E91
:06042A00840080010800BF
:10043000F022831203138601880183168801860146
:10044000071687158312A30194213D30FB00E1308C
:10045000FC003F30FD00FD0B2B2AFC0B2B2AFB0B75
:100460002B2A000000008316BB30CE0083126B08DD
:100470008316CF00831241088316D00083124008F0
:100480008316D100DD2142308316CE0035210C21A8
:100490007B20BB20831203132208553E84000008F2
:0A04A0008600FF308800332A542A3A
:1005E000203084004B3083120313F0005A308316FE
:1005F000CC000230CD008821A03084001B30F000F8
:10060000C1308316CC000230CD0088216B308400CD
:100610000130F000EF308316CC000230CD0088218D
:10062000BB3084000F30F000DC308316CC00023089
:10063000CD0088216C3084000430F000EB3083164C
:0A064000CC000230CD008821080034
:0204B400003412
:0204B600003410
:0204B80000340E
:0204BA0000340C
:0204BC0000340A
:1004BE00413454342B3443344D34473453343D3467
:1004CE0022342B34323433343434383431343034FF
:1004DE0038343834393433343434303433342234D9
:0604EE000D340A34003455
:0204F4000434CE
:0204F6000334CD
:1004F8003034003400340034003400340034003424
:100508000034003400340034003400340034003443
:040518000034003477
:02051C000034A9
:10051E003F3406345B344F3466346D347D340734E7
:04052E007F346F3473
:10053200413454342B3443344D34473446343D34FF
:0805420031340D340A34003499
:10054A0047346134733420346C34653461346B3429
:10055A00613467346534203469346E342034743439
:10056A006834653420346234753469346C346434E4
:08057A0069346E34673400346B
:0E05820041345434453430340D340A340034DE
:10059000413454342B3443344E344D3449343D3497
:1005A00032342C3432342C3430342C3430342C3437
:0805B00030340D340A3400342C
:1005B80050346534723473346F346E347334203489
:0E05C80069346E34733469346434653400343D
:0205D6000034EF
:0405D80000340034B7
:0205DC000034E9
:0205DE000234E5
:02400E004A2F37
:00000001FF
