:020000005E2977
:10000600831603139818092800000328460883124C
:040016009900080045
:10001A0083160313C50183126F0884000008831630
:10002A00C4004408003A031927284408C6000320DC
:10003A008316C50A450883126F07840000088316D1
:06004A00C40016280800A6
:10005000831203131A08F100981C3028181218167E
:060060007108F000080029
:100066008316031398169030831298008316871709
:10007600071383128C1E42281A08F0003C28080039
:10008600503083120313EF000D200630FB001330AF
:10009600FC00AD30FD00FD0B4E28FC0B4E28FB0B83
:1000A6004E280000000083126E0884000008031921
:1000B60064286E08840000088316C6000320EE0A32
:0C00C60056281A308316C60003200800DC
:0E00D2000030831203138C1A0130F000080076
:0E00E000831203136C088A006B08820008006C
:1000EE0069207008013A031DC4282820AC28A00AF4
:1000FE002008033A031D8328C4282008033A031D51
:10010E008B280130A300A001C4282308013A031D47
:10011E009328A3010130A200C4282208013A031D2E
:10012E009B28A2010230B600C4282208013A031D02
:10013E00A328A2010330B600C4282208013A031DE9
:10014E00AB28A2010130B600C42870083A3A031950
:10015E007E2870080D3A0319842870082A3A03196C
:10016E008C287008323A031994287008333A031910
:10017E009C287008313A0319A4283608033A031D47
:0C018E00CC286D08EE004320B6010800EC
:10019A0030308316031341078312A40030308316CC
:1001AA0042078312A5003030831643078312A60044
:1001BA002030A7000430A1008316400884000008FC
:1001CA000319F82883122108243EF10083164008F7
:1001DA0084000008F0007108840070088000C00ADA
:1001EA008312A10AE12883122108243E84002030C8
:1001FA00800002302107F0007008A1007008243E38
:06020A00840080010800E1
:1002100070208A110A128000840AEB0A0319EC0A82
:08022000F003031D082908008A
:100228003330831603139900181533203330FB003D
:10023800BB30FC00DF30FD00FD0B2029FC0B202922
:10024800FB0B2029000000004930EF000D200B3087
:10025800FB002630FC005D30FD00FD0B3129FC0B56
:100268003129FB0B312900000000B4308312EF0064
:100278000D200B30FB002630FC005D30FD00FD0B2F
:100288004329FC0B4329FB0B432900000000A03045
:100298008312EF000D200B30FB002630FC005D3090
:1002A800FD00FD0B5529FC0B5529FB0B55290000BA
:0402B800000008003A
:1002BC00E82183120313B60114213830C0008312D5
:1002CC0037088316C100831248088316C2008312B4
:1002DC0047088316C300CD202430ED007720722907
:0202EC00762971
:1003D000203084004B3083120313F0007C30EB009C
:1003E0000130EC000821A03084002030F000C7303C
:0A03F000EB000130EC0008210800CA
:0202F8000034D0
:0202FA000034CE
:0202FC000034CC
:0202FE000034CA
:10030000303400340034003400340034003400341D
:10031000003400340034003400340034003400343D
:040320000034003471
:020324000034A3
:0203260002349F
:1003280050346534723473346F346E34733420341B
:0E03380069346E3473346934643465340034CF
:0203460004347D
:0203480003347C
:0E034A0041345434453430340D340A34003418
:10035800413454342B3443344D34473453343D34CE
:1003680022342B3432343334343438343134303466
:100378003834383439343334343430343334223440
:060388000D340A340034BC
:10038E00413454342B3443344E344D3449343D349B
:10039E0032342C3432342C3430342C3430342C343B
:0803AE0030340D340A34003430
:1003B600413454342B3443344D34473446343D347D
:0803C60031340D340A34003417
:02400E004A2F37
:00000001FF
