:020000007D2859
:1000060083160313981809280000032883125E0834
:040016009900080045
:10001A0083120313DD015B0884000008DC005C081E
:10002A00003A031922285C08DE000320DD0A5D0875
:0C003A005B0784000008DC0014280800AC
:0E0046008312031359088A005808820008002C
:10005400831603139816903083129800831687171B
:10006400071383128C1E39281A08F000332808005D
:0E007400333083160313990018152A20080054
:10008200203083120313DB000D200630FB001330F7
:10009200FC00AD30FD00FD0B4C28FC0B4C28FB0B8B
:1000A2004C28000000005A08840000080319602848
:1000B2005A0884000008DE000320DA0A54280230BD
:1000C200FB000430FC00BA30FD00FD0B6628FC0B7F
:1000D2006628FB0B662800001A30DE0003200800A9
:1000E20023208A110A128000840AD80A0319D90A25
:0800F200F003031D7128080052
:1000FA002221303083120313D0003330FB00BB308F
:10010A00FC00DF30FD00FD0B8828FC0B8828FB0B68
:10011A008828000000003330FB00BB30FC00DF30D1
:10012A00FD00FD0B9628FC0B9628FB0B9628000079
:10013A0000003A201530FB004B30FC00BE30FD00B9
:10014A00FD0BA528FC0BA528FB0BA52800005130A8
:10015A00DB000D200B30FB002630FC005D30FD007B
:10016A00FD0BB528FC0BB528FB0BB52800000000D9
:10017A003B30DB000D200B30FB002630FC005D30ED
:10018A00FD00FD0BC628FC0BC628FB0BC628000089
:10019A0000004030DB000D200B30FB002630FC0055
:1001AA005D30FD00FD0BD728FC0BD728FB0BD728A9
:0E01BA00000000004C30DA004120E228E3286B
:1002440020308400383083120313F000E930D800E2
:080254000030D9007120080000
:1001D200413454342B3443344D34473453343D3456
:1001E20022342B34323433343434383431343034EE
:1001F20038343834393433343434303433342234C8
:060202000D340A34003443
:0A020800413454340D340A3400343C
:10021200413454342B3443344D34473446343D3422
:0802220031340D340A340034BC
:08022A005934653473340034CB
:02023200303466
:0E02340041345434453430340D340A3400342F
:02400E004A2F37
:00000001FF
