:02000000DE28F8
:10000600831603139818092800000328831268082A
:040016009900080045
:10001A0083120313E701650884000008E6006608F6
:10002A00003A031922286608E8000320E70A67084D
:0C003A00650784000008E6001428080098
:0E004600831203135F088A005E088200080020
:10005400831603139816903083129800831687171B
:10006400071383128C1E39281A08F000332808005D
:100074003030831203136207A90030306307AA00EB
:1000840030306407AB002030AC000430A7000030EF
:10009400A800610884000008031960282708293E85
:1000A400F100610884000008F00071088400700801
:1000B4008000E10AA70A0319A80A4B282708293E49
:1000C40084002030800002302707F000280803183D
:1000D400013EF1007008A7007108A8007008293ECD
:0600E40084008001080009
:0E00EA00333083160313990018152A200800DE
:1000F800203083120313E5000D200B30FB0026305F
:10010800FC005D30FD00FD0B8728FC0B8728FB0BEE
:100118008728000000004D30E5000D200B30FB0063
:100128002630FC005D30FD00FD0B9828FC0B98285C
:10013800FB0B9828000000005230E5000D200B3022
:10014800FB002630FC005D30FD00FD0BA928FC0BF0
:10015800A928FB0BA92800000000A030E5000D200D
:100168000630FB001330FC00AD30FD00FD0BBA2853
:10017800FC0BBA28FB0BBA280000000061088400B9
:1001880000080319CE28610884000008E80003204D
:0C019800E10AC2281A30E8000320080029
:1001A40023208A110A128000840ADE0A0319DF0A56
:0801B400F003031DD22808002E
:1001BC006E2183120313E0013330FB00BB30FC00D3
:1001CC00DF30FD00FD0BE828FC0BE828FB0BE828D2
:1001DC000000000075201F30FB007130FC001E3049
:1001EC00FD00FD0BF728FC0BF728FB0BF728000094
:1001FC003E30E1003B08E2003C08E3003D08E4002F
:10020C003A202930E1007C20E00A6008003C031809
:04021C0007290F2976
:1002DC00203084003E3083120313F0001530DE0012
:1002EC000130DF00D220A03084001B300313F0005B
:0C02FC005330DE000130DF00D22008008B
:0E022A0041345434453430340D340A34003439
:04023800003400345A
:10023C0030340034003400340034003400340034E2
:10024C000034003400340034003400340034003402
:04025C000034003436
:02026000023466
:02026200033463
:02026400043460
:1002660050346534723473346F346E3473342034DE
:0E02760069346E347334693464346534003492
:0A028400413454340D340A340034C0
:10028E00413454342B3443344D34473446343D34A6
:08029E0031340D340A34003440
:1002A600413454342B3443344D34473453343D3481
:1002B60022342B3432343334343438343134303419
:1002C60038343834393433343434303433342234F3
:0602D6000D340A3400346F
:02400E004A2F37
:00000001FF
