:02000000742862
:100006008316031398180928000003288312610831
:040016009900080045
:10001A0083120313E0015E0884000008DF005F0812
:10002A00003A031922285F08E1000320E00A600869
:0C003A005E0784000008DF0014280800A6
:0E004600831203135D088A005C088200080024
:10005400831603139816903083129800831687171B
:10006400071383128C1E39281A08F000332808005D
:0E007400333083160313990018152A20080054
:10008200203083120313DE000D200630FB001330F4
:10009200FC00AD30FD00FD0B4C28FC0B4C28FB0B8B
:1000A2004C28000000005330DE000D200230FB001F
:1000B2000430FC00BA30FD00FD0B5D28FC0B5D280E
:0E00C200FB0B5D2800001A30E100032008004F
:1000D00023208A110A128000840ADC0A0319DD0A2F
:0800E000F003031D682808006D
:1000E8001A21303083120313DB003330FB00BB309E
:1000F800FC00DF30FD00FD0B7F28FC0B7F28FB0B8D
:100108007F28000000003330FB00BB30FC00DF30EC
:10011800FD00FD0B8D28FC0B8D28FB0B8D280000A6
:1001280000003A201530FB004B30FC00BE30FD00CB
:10013800FD0B9C28FC0B9C28FB0B9C2800003B30EB
:10014800DE000D200B30FB002630FC005D30FD008A
:10015800FD0BAC28FC0BAC28FB0BAC280000000006
:100168004230DE000D200B30FB002630FC005D30F5
:10017800FD00FD0BBD28FC0BBD28FB0BBD280000B6
:1001880000004730DE000D200B30FB002630FC005D
:100198005D30FD00FD0BCE28FC0BCE28FB0BCE28D6
:0A01A800000000004120D728D828ED
:10023400203084003C3083120313F000DE30DC00F5
:080244000030DD006820080015
:1001BC00413454342B3443344D34473453343D346C
:1001CC0022342B3432343334343438343134303404
:1001DC0038343834393433343434303433342234DE
:0601EC000D340A3400345A
:0E01F20041345434453430340D340A34003472
:0A020000413454340D340A34003444
:10020A00413454342B3443344D34473446343D342A
:08021A0031340D340A340034C4
:10022200573465346C3463346F346D346534003460
:02023200303466
:02400E004A2F37
:00000001FF
