:02000000A22933
:10000600831603139818092800000328460883124C
:040016009900080045
:10001A0083160313C501430884000008C40044087A
:10002A00003A031923284408C60003208316C50A88
:0E003A004508430784000008C400142808008D
:10004800831203131A08F100981C2C28181218168A
:060058007108F000080031
:10005E00A03083160313C3000D200630FB001330AF
:10006E00FC00AD30FD00FD0B3A28FC0B3A28FB0BD3
:10007E003A280000000042088400000803194F28A7
:10008E00420884000008C60003208316C20A4228D4
:08009E001A30C600032008001F
:0E00A600831603133D088A003C088200080000
:1000B40083120313F8010830FC00700DF80D740866
:1000C400F80203186728F8070310F00DFC0B5F28EB
:0200D400080022
:1000D6008316031398169030831298008316871799
:1000E600071383128C1E7A281A08F0007428080059
:0E00F6000030831203138C1A0130F000080052
:1001040083120313071C8728C60A071C8A2887281A
:10011400871C91284608003C03189128C603871CB5
:10012400942891286430F4004608F0005A2070089E
:10013400DB006430F4004608F0005A207808F00030
:100144000A30F4005A207008E0000A30F40046082F
:0E015400F0005A207808F0007008DF00080064
:100162003030831603133F078312A000303083160A
:1001720040078312A1003030831641078312A20088
:100182002030A3000430C70083163E088400000814
:100192000319DC2883124708203EF10083163E082B
:1001A20084000008F0007108840070088000BE0A14
:1001B2008312C70AC52883124708203E84002030D4
:1001C200800002304707F0007008C7007008203E28
:0601D2008400800108001A
:1001D800333083160313990018156B203330FB0056
:1001E800BB30FC00DF30FD00FD0BF828FC0BF828C5
:1001F800FB0BF8280000000054308316C3000D20C4
:100208000B30FB002630FC005D30FD00FD0B0A2999
:10021800FC0B0A29FB0B0A29000000004830C30028
:100228000D200B30FB002630FC005D30FD00FD0B7F
:100238001B29FC0B1B29FB0B1B290000000032307B
:10024800C3000D200B30FB002630FC005D30FD00A4
:10025800FD0B2C29FC0B2C29FB0B2C290000000082
:0202680008008C
:10026A007B207008013A031D8B29242073298312ED
:10027A00DC0A5C08033A031D42298B2983125C08B5
:10028A00033A031D4B290130DE00DC018B2983125E
:10029A005E08013A031D5429DE010130DD008B2975
:1002AA0083125D08013A031D5E29DD0102308316BF
:1002BA00BB008B2983125D08013A031D6829DD0101
:1002CA0003308316BB008B2983125D08013A031D94
:1002DA007229DD0101308316BB008B2970083A3A76
:1002EA0003193C2970080D3A0319432970082A3A60
:1002FA0003194C297008323A031955297008333A00
:10030A0003195F297008313A0319692983163B08D2
:10031A00033A031D95293E08C2002F208316BB010C
:02032A000800C9
:10032C0053208A110A128000840ABC0A0319BD0AE0
:08033C00F003031D96290800DF
:10034400322283120313071487148316BB01EC2093
:10035400822061308316BE0083125B088316BF00BF
:10036400831260088316C00083125F088316C100DD
:0E037400B12020308316BE003521AA29C029F1
:10046400203084003D3083120313F000C63083161D
:10047400BC000130BD009621A03084001B30031362
:10048400F00003308316BC000230BD0096215D30BD
:10049400840013300313F0001E308316BC000230B6
:1004A400BD009621BB30840001300313F0003130CD
:0C04B4008316BC000230BD009621080039
:10038C003034003400340034003400340034003491
:10039C0000340034003400340034003400340034B1
:0403AC0000340034E5
:1003B000413454342B3443344E344D3449343D3479
:1003C00032342C3432342C3430342C3430342C3419
:0803D00030340D340A3400340E
:0203D800963459
:0203DA000034ED
:1003DC00413454342B3443344D34473446343D3457
:0803EC0031340D340A340034F1
:0E03F40041345434453430340D340A3400346E
:020402000234C2
:020404000034C2
:10040600413454342B3443344D34473453343D341F
:1004160022342B34323433343434383431343034B7
:100426003834383439343334343430343334223491
:060436000D340A3400340D
:02043C0000348A
:02043E00003488
:02044000043482
:02044200033481
:1004440050346534723473346F346E3473342034FE
:0E04540069346E3473346934643465340034B2
:02046200003464
:02400E004A2F37
:00000001FF
