:02000000B52821
:10000600831603139818092800000328831265082D
:040016009900080045
:10001A0083120313E401620884000008E300630802
:10002A00003A031922286308E5000320E40A640859
:0C003A00620784000008E300142808009E
:0E004600831203135D088A005C088200080024
:10005400831603139816903083129800831687171B
:10006400071383128C1E39281A08F000332808005D
:10007400831203135F08A5006008A6006108A700A7
:100084002030A8000430B7000030B8005E088400B7
:10009400000803195D283708253EF1005E08840036
:1000A4000008F0007108840070088000DE0AB70AB6
:1000B4000319B80A48283708253E840020308000F8
:1000C40002303707F00038080318013EF1007008C9
:1000D400B7007108B8007008253E8400800108004C
:0E00E400333083160313990018152A200800E4
:1000F200A03083120313E2000D200630FB00133000
:10010200FC00AD30FD00FD0B8428FC0B8428FB0BAA
:100112008428000000005E08840000080319982863
:100122005E0884000008E5000320DE0A8C28023005
:10013200FB000430FC00BA30FD00FD0B9E28FC0BD6
:100142009E28FB0B9E2800001A30E50003200800C1
:1001520023208A110A128000840ADC0A0319DD0AAC
:08016200F003031DA9280800A9
:10016A008221303083120313C5003330FB00BB30C9
:10017A00FC00DF30FD00FD0BC028FC0BC028FB0B88
:10018A00C028000000003330FB00BB30FC00DF3029
:10019A00FD00FD0BCE28FC0BCE28FB0BCE28000061
:1001AA00000072204630DE003230DF003330E000DB
:1001BA003430E1003A201530FB004B30FC00BE30F1
:1001CA00FD00FD0BE628FC0BE628FB0BE6280000E9
:1001DA005530E2000D200B30FB002630FC005D306C
:1001EA00FD00FD0BF628FC0BF628FB0BF628000099
:1001FA0000002030E2000D200B30FB002630FC000E
:10020A005D30FD00FD0B0729FC0B0729FB0B0729B5
:10021A00000000003930E2000D200B30FB002630D0
:10022A00FC005D30FD00FD0B1829FC0B1829FB0BA7
:10023A001829000000002530DE007920232924290E
:10030400203084003C3083120313F0002A30DC00D8
:100314000130DD00A920A03084001B308312F000DE
:0C0324006630DC000130DD00A92008007C
:0A025400413454340D340A340034F0
:10025E0030340034003400340034003400340034C0
:10026E0000340034003400340034003400340034E0
:04027E000034003414
:040282000034003410
:10028600413454342B3443344D34473446343D34AE
:0802960031340D340A34003448
:02029E003034FA
:1002A00050346534723473346F346E3473342034A4
:0E02B00069346E347334693464346534003458
:0E02BE0041345434453430340D340A340034A5
:1002CC00413454342B3443344D34473453343D345B
:1002DC0022342B34323433343434383431343034F3
:1002EC0038343834393433343434303433342234CD
:0602FC000D340A34003449
:02400E004A2F37
:00000001FF
