:02000000712865
:1000060083120313071E09280130A000071E0C28BF
:100016000928871D10280130A100871D13281028E4
:020026000800D0
:0E0028008312031324088A00230882000800B4
:1000360014208A110A128000840AA30A0319A40A4A
:08004600F003031D1B28080054
:10004E0003202008013A031D4B282108003A031D06
:10005E004B28A501A60180302606F0008030033A19
:10006E007002031D3C28E830250203184B2803209C
:10007E002108013A031D4728A20AA101A0014B281D
:10008E00A50A0319A60A32282108013A031D702871
:10009E00A101A001A501A60180302606F000803046
:1000AE00033A7002031D5D28E830250203187028FC
:1000BE0003202008013A031D6C282208003C031877
:1000CE006928A203A101A0017028A50A0319A60A96
:0400DE00532808009B
:1000E20083120313A001A101A201860188018316D4
:1000F200860183128601FF30831687008801032060
:0A01020027202208860080288528A7
:02400E004A2F37
:00000001FF
